{
  "_format": "hh-sol-artifact-1",
  "contractName": "ERC20MetaTransfer",
  "sourceName": "contracts/ERC20MetaTransfer.sol",
  "abi": [
    {
      "inputs": [],
      "stateMutability": "nonpayable",
      "type": "constructor"
    },
    {
      "inputs": [],
      "name": "ECDSAInvalidSignature",
      "type": "error"
    },
    {
      "inputs": [
        {
          "internalType": "uint256",
          "name": "length",
          "type": "uint256"
        }
      ],
      "name": "ECDSAInvalidSignatureLength",
      "type": "error"
    },
    {
      "inputs": [
        {
          "internalType": "bytes32",
          "name": "s",
          "type": "bytes32"
        }
      ],
      "name": "ECDSAInvalidSignatureS",
      "type": "error"
    },
    {
      "anonymous": false,
      "inputs": [
        {
          "indexed": true,
          "internalType": "address",
          "name": "from",
          "type": "address"
        },
        {
          "indexed": true,
          "internalType": "address",
          "name": "to",
          "type": "address"
        },
        {
          "indexed": true,
          "internalType": "address",
          "name": "token",
          "type": "address"
        },
        {
          "indexed": false,
          "internalType": "uint256",
          "name": "amount",
          "type": "uint256"
        }
      ],
      "name": "MetaTransferERC20",
      "type": "event"
    },
    {
      "anonymous": false,
      "inputs": [
        {
          "indexed": true,
          "internalType": "address",
          "name": "from",
          "type": "address"
        },
        {
          "indexed": true,
          "internalType": "address",
          "name": "to",
          "type": "address"
        },
        {
          "indexed": false,
          "internalType": "uint256",
          "name": "amount",
          "type": "uint256"
        }
      ],
      "name": "MetaTransferETH",
      "type": "event"
    },
    {
      "inputs": [],
      "name": "DOMAIN_SEPARATOR_ERC20",
      "outputs": [
        {
          "internalType": "bytes32",
          "name": "",
          "type": "bytes32"
        }
      ],
      "stateMutability": "view",
      "type": "function"
    },
    {
      "inputs": [],
      "name": "DOMAIN_SEPARATOR_ETH",
      "outputs": [
        {
          "internalType": "bytes32",
          "name": "",
          "type": "bytes32"
        }
      ],
      "stateMutability": "view",
      "type": "function"
    },
    {
      "inputs": [],
      "name": "META_TRANSFER_ETH_TYPEHASH",
      "outputs": [
        {
          "internalType": "bytes32",
          "name": "",
          "type": "bytes32"
        }
      ],
      "stateMutability": "view",
      "type": "function"
    },
    {
      "inputs": [],
      "name": "META_TRANSFER_TYPEHASH",
      "outputs": [
        {
          "internalType": "bytes32",
          "name": "",
          "type": "bytes32"
        }
      ],
      "stateMutability": "view",
      "type": "function"
    },
    {
      "inputs": [
        {
          "internalType": "address",
          "name": "",
          "type": "address"
        }
      ],
      "name": "erc20Nonces",
      "outputs": [
        {
          "internalType": "uint256",
          "name": "",
          "type": "uint256"
        }
      ],
      "stateMutability": "view",
      "type": "function"
    },
    {
      "inputs": [
        {
          "internalType": "address",
          "name": "",
          "type": "address"
        }
      ],
      "name": "ethNonces",
      "outputs": [
        {
          "internalType": "uint256",
          "name": "",
          "type": "uint256"
        }
      ],
      "stateMutability": "view",
      "type": "function"
    },
    {
      "inputs": [
        {
          "internalType": "address",
          "name": "token",
          "type": "address"
        },
        {
          "internalType": "address",
          "name": "from",
          "type": "address"
        },
        {
          "internalType": "address",
          "name": "to",
          "type": "address"
        },
        {
          "internalType": "uint256",
          "name": "amount",
          "type": "uint256"
        },
        {
          "internalType": "uint256",
          "name": "deadline",
          "type": "uint256"
        },
        {
          "internalType": "uint8",
          "name": "v",
          "type": "uint8"
        },
        {
          "internalType": "bytes32",
          "name": "r",
          "type": "bytes32"
        },
        {
          "internalType": "bytes32",
          "name": "s",
          "type": "bytes32"
        }
      ],
      "name": "metaTransferERC20",
      "outputs": [],
      "stateMutability": "nonpayable",
      "type": "function"
    },
    {
      "inputs": [
        {
          "internalType": "address",
          "name": "from",
          "type": "address"
        },
        {
          "internalType": "address",
          "name": "to",
          "type": "address"
        },
        {
          "internalType": "uint256",
          "name": "amount",
          "type": "uint256"
        },
        {
          "internalType": "uint256",
          "name": "deadline",
          "type": "uint256"
        },
        {
          "internalType": "uint8",
          "name": "v",
          "type": "uint8"
        },
        {
          "internalType": "bytes32",
          "name": "r",
          "type": "bytes32"
        },
        {
          "internalType": "bytes32",
          "name": "s",
          "type": "bytes32"
        }
      ],
      "name": "metaTransferETH",
      "outputs": [],
      "stateMutability": "nonpayable",
      "type": "function"
    },
    {
      "stateMutability": "payable",
      "type": "receive"
    }
  ],
  "bytecode": "0x60c060405234801561001057600080fd5b5060408051600080516020610cec83398151915260208201527f599cf5f9ec45f5021d6ed8ca649d01a791a6aaa0c59178ab8e43f1a63bb889ed91810191909152600080516020610ccc83398151915260608201524660808201523060a082015260c00160408051808303601f1901815282825280516020918201206080908152600080516020610cec833981519152918401919091527fc60a73edd41b556f0062f0090c4fb4c3cef4cf502d7fb471f5bc15c5066098f291830191909152600080516020610ccc833981519152606083015246908201523060a082015260c00160408051601f19818403018152919052805160209091012060a05260805160a051610b8d61013f600039600081816101e7015261032f01526000818161015201526106160152610b8d6000f3fe60806040526004361061007f5760003560e01c806392a614061161004e57806392a61406146101405780639864f3e614610174578063ac302bc9146101a1578063dda65650146101d557600080fd5b80632b0b33801461008b57806375603870146100ad5780637874f756146100ec5780639033c7161461010c57600080fd5b3661008657005b600080fd5b34801561009757600080fd5b506100ab6100a63660046109f1565b610209565b005b3480156100b957600080fd5b506100da6100c8366004610a5b565b60006020819052908152604090205481565b60405190815260200160405180910390f35b3480156100f857600080fd5b506100ab610107366004610a7d565b6104ee565b34801561011857600080fd5b506100da7ffef01f721a6c92dc7a61e98aa8be2fbb9d2305fa27f9e929c54abb262a026a0081565b34801561014c57600080fd5b506100da7f000000000000000000000000000000000000000000000000000000000000000081565b34801561018057600080fd5b506100da61018f366004610a5b565b60016020526000908152604090205481565b3480156101ad57600080fd5b506100da7f5da1db61e03fd0242fa754d6519bacca78cde30aee2348bb03645e3e36cb18d181565b3480156101e157600080fd5b506100da7f000000000000000000000000000000000000000000000000000000000000000081565b834211156102525760405162461bcd60e51b815260206004820152601160248201527045787069726564207369676e617475726560781b60448201526064015b60405180910390fd5b600085116102a25760405162461bcd60e51b815260206004820181905260248201527f416d6f756e74206d7573742062652067726561746572207468616e207a65726f6044820152606401610249565b6001600160a01b0387811660008181526001602090815260408083205481517ffef01f721a6c92dc7a61e98aa8be2fbb9d2305fa27f9e929c54abb262a026a008185015280830195909552948b166060850152608084018a905260a0840185905260c08085018a90528151808603909101815260e08501825280519083012061190160f01b6101008601527f00000000000000000000000000000000000000000000000000000000000000006101028601526101228086018290528251808703909101815261014290950190915283519390910192909220906103878288888861080a565b90508a6001600160a01b0316816001600160a01b0316146103de5760405162461bcd60e51b8152602060048201526011602482015270496e76616c6964207369676e617475726560781b6044820152606401610249565b6103e9846001610af8565b6001600160a01b038c8116600090815260016020526040808220939093559151908c16908b908381818185875af1925050503d8060008114610447576040519150601f19603f3d011682016040523d82523d6000602084013e61044c565b606091505b50509050806104935760405162461bcd60e51b8152602060048201526013602482015272115512081d1c985b9cd9995c8819985a5b1959606a1b6044820152606401610249565b8a6001600160a01b03168c6001600160a01b03167fb1627654d7620cc917b7f7887a49fe0cf64c7385c298b955cadbb451eb340c6a8c6040516104d891815260200190565b60405180910390a3505050505050505050505050565b834211156105325760405162461bcd60e51b815260206004820152601160248201527045787069726564207369676e617475726560781b6044820152606401610249565b600085116105825760405162461bcd60e51b815260206004820181905260248201527f416d6f756e74206d7573742062652067726561746572207468616e207a65726f6044820152606401610249565b6001600160a01b038781166000818152602081815260408083205481517f5da1db61e03fd0242fa754d6519bacca78cde30aee2348bb03645e3e36cb18d1818501528e8716818401526060810195909552948b16608085015260a084018a905260c0840185905260e08085018a9052815180860390910181526101008501825280519083012061190160f01b6101208601527f000000000000000000000000000000000000000000000000000000000000000061012286015261014280860182905282518087039091018152610162909501909152835193909101929092209061066e8288888861080a565b90508a6001600160a01b0316816001600160a01b0316146106c55760405162461bcd60e51b8152602060048201526011602482015270496e76616c6964207369676e617475726560781b6044820152606401610249565b6106d0846001610af8565b6001600160a01b038c8116600081815260208190526040908190209390935591516323b872dd60e01b815260048101929092528b81166024830152604482018b90528d16906323b872dd906064016020604051808303816000875af115801561073d573d6000803e3d6000fd5b505050506040513d601f19601f820116820180604052508101906107619190610b1f565b6107a55760405162461bcd60e51b8152602060048201526015602482015274115490cc8c081d1c985b9cd9995c8819985a5b1959605a1b6044820152606401610249565b8b6001600160a01b03168a6001600160a01b03168c6001600160a01b03167fe2d0dc057b93a7dbaf0700f124258a13650165c190567c32acc9819c71b2d5718c6040516107f491815260200190565b60405180910390a4505050505050505050505050565b60008060008061081c88888888610838565b92509250925061082c8282610907565b50909695505050505050565b600080807f7fffffffffffffffffffffffffffffff5d576e7357a4501ddfe92f46681b20a084111561087357506000915060039050826108fd565b604080516000808252602082018084528a905260ff891692820192909252606081018790526080810186905260019060a0016020604051602081039080840390855afa1580156108c7573d6000803e3d6000fd5b5050604051601f1901519150506001600160a01b0381166108f3575060009250600191508290506108fd565b9250600091508190505b9450945094915050565b600082600381111561091b5761091b610b41565b03610924575050565b600182600381111561093857610938610b41565b036109565760405163f645eedf60e01b815260040160405180910390fd5b600282600381111561096a5761096a610b41565b0361098b5760405163fce698f760e01b815260048101829052602401610249565b600382600381111561099f5761099f610b41565b036109c0576040516335e2f38360e21b815260048101829052602401610249565b5050565b80356001600160a01b03811681146109db57600080fd5b919050565b803560ff811681146109db57600080fd5b600080600080600080600060e0888a031215610a0c57600080fd5b610a15886109c4565b9650610a23602089016109c4565b95506040880135945060608801359350610a3f608089016109e0565b925060a0880135915060c0880135905092959891949750929550565b600060208284031215610a6d57600080fd5b610a76826109c4565b9392505050565b600080600080600080600080610100898b031215610a9a57600080fd5b610aa3896109c4565b9750610ab160208a016109c4565b9650610abf60408a016109c4565b95506060890135945060808901359350610adb60a08a016109e0565b925060c0890135915060e089013590509295985092959890939650565b80820180821115610b1957634e487b7160e01b600052601160045260246000fd5b92915050565b600060208284031215610b3157600080fd5b81518015158114610a7657600080fd5b634e487b7160e01b600052602160045260246000fdfea264697066735822122051b8a4a5518c916396751d5b1d1adf557da07dbe0ba15b42731cfe702433eb4c64736f6c63430008140033c89efdaa54c0f20c7adf612882df0950f5a951637e0307cdcb4c672f298b8bc68b73c3c69bb8fe3d512ecc4cf759cc79239f7b179b0ffacaa9a75d522b39400f",
  "linkReferences": {},
  "deployedLinkReferences": {}
}