{
  "_format": "hh-sol-artifact-1",
  "contractName": "ERC20MetaTransfer",
  "sourceName": "contracts/ERC20MetaTransfer.sol",
  "abi": [
    {
      "inputs": [],
      "stateMutability": "nonpayable",
      "type": "constructor"
    },
    {
      "inputs": [],
      "name": "DOMAIN_SEPARATOR",
      "outputs": [
        {
          "internalType": "bytes32",
          "name": "",
          "type": "bytes32"
        }
      ],
      "stateMutability": "view",
      "type": "function"
    },
    {
      "inputs": [],
      "name": "META_TRANSFER_TYPEHASH",
      "outputs": [
        {
          "internalType": "bytes32",
          "name": "",
          "type": "bytes32"
        }
      ],
      "stateMutability": "view",
      "type": "function"
    },
    {
      "inputs": [
        {
          "internalType": "address",
          "name": "token",
          "type": "address"
        },
        {
          "internalType": "address",
          "name": "from",
          "type": "address"
        },
        {
          "internalType": "address",
          "name": "to",
          "type": "address"
        },
        {
          "internalType": "uint256",
          "name": "amount",
          "type": "uint256"
        },
        {
          "internalType": "uint256",
          "name": "deadline",
          "type": "uint256"
        },
        {
          "internalType": "uint8",
          "name": "v",
          "type": "uint8"
        },
        {
          "internalType": "bytes32",
          "name": "r",
          "type": "bytes32"
        },
        {
          "internalType": "bytes32",
          "name": "s",
          "type": "bytes32"
        }
      ],
      "name": "metaTransfer",
      "outputs": [],
      "stateMutability": "nonpayable",
      "type": "function"
    },
    {
      "inputs": [
        {
          "internalType": "address",
          "name": "",
          "type": "address"
        }
      ],
      "name": "nonces",
      "outputs": [
        {
          "internalType": "uint256",
          "name": "",
          "type": "uint256"
        }
      ],
      "stateMutability": "view",
      "type": "function"
    }
  ],
  "bytecode": "0x60a060405234801561001057600080fd5b50604080517f8b73c3c69bb8fe3d512ecc4cf759cc79239f7b179b0ffacaa9a75d522b39400f60208201527f599cf5f9ec45f5021d6ed8ca649d01a791a6aaa0c59178ab8e43f1a63bb889ed918101919091527fc89efdaa54c0f20c7adf612882df0950f5a951637e0307cdcb4c672f298b8bc660608201524660808201523060a082015260c00160408051601f1981840301815291905280516020909101206080526080516104fe6100d460003960008181605601526101c401526104fe6000f3fe608060405234801561001057600080fd5b506004361061004c5760003560e01c80633644e515146100515780637ecebe001461008a578063ac302bc9146100aa578063f6c17c43146100d1575b600080fd5b6100787f000000000000000000000000000000000000000000000000000000000000000081565b60405190815260200160405180910390f35b6100786100983660046103da565b60006020819052908152604090205481565b6100787fe6e1b5d9f755bf6a192eb84e31a5470c08769a5adb3efc8a37d03efb6714ea2781565b6100e46100df3660046103fc565b6100e6565b005b8342111561012f5760405162461bcd60e51b815260206004820152601160248201527045787069726564207369676e617475726560781b60448201526064015b60405180910390fd5b6001600160a01b038781166000818152602081815260408083205481517fe6e1b5d9f755bf6a192eb84e31a5470c08769a5adb3efc8a37d03efb6714ea27818501528e8716818401526060810195909552948b16608085015260a084018a905260c084019490945260e0808401899052845180850390910181526101008401855280519082012061190160f01b6101208501527f000000000000000000000000000000000000000000000000000000000000000061012285015261014280850182905285518086039091018152610162850180875281519184019190912090849052610182850180875281905260ff89166101a28601526101c285018890526101e285018790529451909493600192610202808301939192601f198301929081900390910190855afa158015610269573d6000803e3d6000fd5b505050602060405103519050896001600160a01b0316816001600160a01b0316146102ca5760405162461bcd60e51b8152602060048201526011602482015270496e76616c6964207369676e617475726560781b6044820152606401610126565b6001600160a01b038a1660009081526020819052604081208054600192906102f390849061047f565b90915550506040516323b872dd60e01b81526001600160a01b038b811660048301528a81166024830152604482018a90528c16906323b872dd906064016020604051808303816000875af115801561034f573d6000803e3d6000fd5b505050506040513d601f19601f8201168201806040525081019061037391906104a6565b6103b15760405162461bcd60e51b815260206004820152600f60248201526e151c985b9cd9995c8819985a5b1959608a1b6044820152606401610126565b5050505050505050505050565b80356001600160a01b03811681146103d557600080fd5b919050565b6000602082840312156103ec57600080fd5b6103f5826103be565b9392505050565b600080600080600080600080610100898b03121561041957600080fd5b610422896103be565b975061043060208a016103be565b965061043e60408a016103be565b9550606089013594506080890135935060a089013560ff8116811461046257600080fd5b979a969950949793969295929450505060c08201359160e0013590565b808201808211156104a057634e487b7160e01b600052601160045260246000fd5b92915050565b6000602082840312156104b857600080fd5b815180151581146103f557600080fdfea2646970667358221220b3192ab8fd2a64668117b2f0fc5a353e8003662435dba54db3dcdd018d51068564736f6c63430008140033",
  "linkReferences": {},
  "deployedLinkReferences": {}
}